:0400000080317E28A5
:100008007E14803120007F08F800911E7928013085
:10001800F0000030F100853189258031230019086E
:10002800F7007708F90060280A30FA070030FB3D2E
:1000380074287B08803AF70080307702031D262851
:100048000B307A02031C74287A08F63EFA00FF3057
:100058007B3DFB0074280A302100B1070030B23D17
:10006800742821003208803AF70080307702031D97
:100078003F280B303102031C742821003108F63E5A
:10008800B100FF30323DB20074280A30FC0700305E
:10009800FD3D74287D08803AF70080307702031D03
:1000A80057280B307C02031C74287C08F63EFC00A1
:1000B800FF307D3DFD0074287908623A0319352820
:1000C800063A031918280C3A03194E28023A03195C
:1000D8004928043A03192F281D3A03191D287428A2
:1000E8002000911272308531E22578082000FF0047
:1000F8007E100900803180288531EA258031FA0098
:100108008531EB258031FB008531EC258031FC0001
:100118008531ED258031FD0021008531EE258031C6
:10012800B1008531EF25B2002000E401E5017E1021
:10013800200080319F282100AD01AE01A901AA014C
:10014800A201A301A601A60AAF01B001AB01AC014F
:1001580083319923803102302000A0000030A100B3
:100168008531582580316630853110258031200051
:1001780021082100A100200020082100A00021085A
:10018800803A2000E1006508803A6102031DCF280B
:100198006408210020020318D3280130D428003035
:1001A8002000E200E30162082100AD00200063089E
:1001B8002100AE002D0C2000031C0C1203180C1695
:1001C8000630E2003030E100E10BE828E20BE828D5
:1001D800000021002D032E04031DF4280130F5280A
:1001E80000302000E100E20161082100A907200099
:1001F80062082100AA3D2D082E04031D052901309F
:10020800062900302000E100E20161082100A20770
:10021800200062082100A33D3208803A2000E10056
:1002280021002308803A20006102031D1E292100B5
:100238002208310203182F2921002608031D2F291F
:100248000A308531DA2580312100A601A60AA201EB
:10025800A301A901AA0121002D082E04031D462986
:100268002A08803A2000E1007B08803A6102031DD9
:1002780040297A0821002902031C46292100A601E9
:100288002D306A2921002D082E04031D72292A0801
:10029800803A2000E1007B08803A6102031D57295B
:1002A8007A08210029020318722921002A08803AB5
:1002B8002000E10080306102031D65290130210022
:1002C8002902031C72292100A6012E308531DA2566
:1002D80080312100A901AA01A201A301783085314A
:1002E80010258031200021082100A80020002008C6
:1002F8002100A700793085311025803120002108A0
:100308002100A500200020082100A4002808803A28
:100318002000E10083306102031D9529E9302100A6
:100328002702031C9E2921002F083004031D9E2943
:100338007030CB2921002808803A2000E100813064
:100348006102031DAA29F430210027020318B329EA
:1003580021002F083004031DB3292D30C72921009F
:100368002808803A2000E10083306102031DBF297C
:10037800213021002702031CD42921002F08300432
:10038800031DD4292B308531DA2580317830853129
:10039800DA2580317D082100B0007C08AF00092AE9
:1003A80021002508803A2000E10081306102031D08
:1003B800E029F430210024020318E92921002B0840
:1003C8002C04031DE9292D30FD2921002508803A38
:1003D8002000E10083306102031DF529213021004E
:1003E8002402031C112A21002B082C04031D112AA6
:1003F8002B308531DA25803179308531DA25803125
:100408007D082100AC007C08AB0001302000A00072
:100418000030A10085315825803121003008803A0C
:100428002000E10080306102031D1D2A01302100F7
:100438002F02031C262A21002F08FF3EAF00FF30A1
:10044800303DB00021002C08803A2000E1008030C7
:100458006102031D322A013021002B02031CB72838
:1004680021002B08FF3EAB00FF302C3DAC00B72825
:1004780020003E08C4003F08C5004008C60003101D
:10048800450D460DC7004708C8004808031D532AF4
:100498000030BE000030BF000030C0000800410836
:1004A800C4004208C5004308C6000310450D460DA8
:1004B800C7004708CD004D08031D692A0030BE005B
:1004C8000030BF000030C00008004D087B3EC4006B
:1004D8004408C8073E08C4003F08C5004008C600D5
:1004E8001030C636C50CC40C890B752A4408C700E1
:1004F8004708CD004108C4004208C5004308C600AB
:100508001030C636C50CC40C890B852A4408C700B0
:100518004708CD068030C4004408CD05BF17C21770
:10052800FF30C105FF30C2050030C3050030C900E7
:100538000030CA000030CB000730C4004408CC00AB
:100548003E1CAC2A4108C9074208CA3D4308CB3DB6
:100558000130C036BF0CBE0C890BAD2A0130C13545
:10056800C20DC30D890BB32A0130CC02031DA42A86
:100578000930C4004408CC003E1CC82A4108C907F9
:100588004208CA3D4308CB3D0130C036BF0CBE0C03
:10059800890BC92A0130CB36CA0CC90C890BCF2A62
:1005A8000130CC02031DC02A4908A0004A08A10056
:1005B8004B08A2004808C4004408A3004D08C50021
:1005C8004508A4008431AB2420002008BE0021087F
:1005D800BF002208C000080020003108B40032081B
:1005E800B5003308B6000310350D360DB7003708CF
:1005F800BC003C08031D072B0030AE000030AF00E4
:100608000030B00008002E08B4002F08B5003008EC
:10061800B6000310350D360DB7003708BD003D088C
:10062800031D1D2B0030AE000030AF000030B000BD
:1006380008000030B9000030BA000030BB00893033
:100648003D07B4003408BC023108B4003208B500D4
:100658003308B6001030B636B50CB40C890B2F2B06
:100668003408B7003708BD002E08B4002F08B500BD
:100678003008B6001030B636B50CB40C890B3F2BD9
:100688003408B7003708BD068030B4003408BD050B
:10069800B217FF30B105FF30B2050030B305AF1710
:1006A800FF30AE05FF30AF050030B0051830B4009C
:1006B8003408B8000130B935BA0DBB0D890B5F2B72
:1006C80030083302031D6E2B2F083202031D6E2BD8
:1006D8002E083102031C772B2E08B1022F08B23BDB
:1006E8003008B33B39140130B135B20DB30D890B65
:1006F800782B0130B802031D5E2B3908A0003A0898
:10070800A1003B08A2003C08B4003408A3003D083F
:10071800B5003508A4008431AB2420002008AE00C1
:100728002108AF002208B0000800723021009900AB
:1007380023008C010E308E00043021008C000E3016
:100748008E0020008C018E01D33021009E009F0175
:10075800F3302200970014303D00A00002303C0026
:10076800A400243023009E0090309D0033309B006D
:1007780020009112210091160B178B1720000C12E4
:10078800DF01E0016008803ADC0080305C02031D74
:10079800CF2B14305F020318ED2B663085311025FE
:1007A800833120002108DE002008DD005D08E40711
:1007B8005E08E53D0130DF070030E03D6008803A23
:1007C800DC0080305C02031DEB2B14305F02031C3D
:1007D800D12B20006508A9006408A8008531B82538
:1007E800833120002808B1002908B2002A08B30084
:1007F8000030AE00A030AF004130B0008231F022AE
:10080800833120002E08C1002F08C2003008C30021
:100818003330BE007330BF003F30C00082313C220D
:10082800833120003E08CE003F08CF004008D000AA
:100838008431242420004F08E5004E08E400080015
:1008480020004E08D2004F08D3005008D4000310EF
:10085800530D540DD5005508DB005B08031D3D2CD6
:100868000030D1000030D0000030CF000030CE0082
:1008780008004E08D2004F08D3005008D4001730A3
:10088800D436D30CD20C890B442C5208D500550809
:10089800D600CF17FF30CE05FF30CF050030D0058A
:1008A8004E08D7004F08D8005008D900DA018E301A
:1008B800DB02DB1F7B2C5B08803A8F3E03186D2C14
:1008C8000030D1000030D0000030CF000030CE0022
:1008D80008000130DA36D90CD80CD70C890B6E2CED
:1008E8000130D2005208DB070319942C6D2C183004
:1008F8005B02031C912C0030D1000030D000003086
:10090800CF000030CE0008000130D735D80DD90D02
:10091800DA0D890B892C0130DB025B08031D882C5A
:1009280056080319A22CD709D809D909DA09D70A10
:100938000319D80A0319D90A0319DA0A5A08D1007F
:100948005908D0005808CF005708CE0008002000EA
:1009580023080319B42C220821042004031DC52CE4
:100968000030A0000030A1000030A20008000130D3
:10097800A5002508A3070130A236A10CA00C890BFD
:10098800C02CFE3022050319DE2CBB2C0130A5003B
:100998002508A3070130A007003003180130A1077C
:1009A800003003180130A2070130A236A10CA00CB8
:1009B800890BD92CFF3022050319EB2CCA2C0130E6
:1009C800A3020130A035A10DA20D890BE62CA11BB5
:1009D800F12C023023020318E32C2318F92CFF30E2
:1009E800A0057F30A105FF30A2050310A30C230842
:1009F800A500A601A7011030A535A60DA70D890BE6
:100A0800002D2508A0042608A1042708A20424080C
:100A180003190800A21708002000A9001B2D153093
:100A2800182D1930182D1D3021009D00272D20006C
:100A38002908663A0319172D1E3A0319132D013A8E
:100A48000319152D272D03302000A3009730A2008D
:100A5800A20B2C2DA30B2C2D003221009D149D18C8
:100A6800332D1C082000A200A3012208AA00230895
:100A7800AB0021001B082000A200A3012B08A50041
:100A88002A08A4002408A500A40122082407A70016
:100A98002308253DA8002708AA002808AB002B0832
:100AA800A1002A08A00008002000A501A601260828
:100AB800803AA2002108803A2202031D652D2008F1
:100AC80025020318080020000C160230A400863006
:100AD800A3009930A200A20B6F2DA30B6F2DA40BBE
:100AE8006F2D20000C120230A4008630A30099302C
:100AF800A200A20B7D2DA30B7D2DA40B7D2D013013
:100B08002000A5070030A63D5B2DF501F60176080B
:100B1800803AF2007108803A7202031D952D700820
:100B280075020318080020000C160230F400863005
:100B3800F3009930F200F20B9F2DF30B9F2DF40B6D
:100B48009F2D20000C120230F4008630F3009930FB
:100B5800F200F20BAD2DF30BAD2DF40BAD2D0130E2
:100B6800F5070030F63D8B2D2000AD01A91FC32DE0
:100B7800A809A909A80A0319A90AAD01AD0A2808F4
:100B8800A0002908A100A2018E30AB002B08A30009
:100B98002D08AC002C08A4008431AB2420002008C8
:100BA800A8002108A9002208AA0008002000A00027
:100BB800111EDC2D200823009A000800F0002000F8
:100BC800111EE32D700823009A00080096340034A3
:080BD800643400342C340134B4
:020000040001F9
:04000E0084CFFBDAC6
:00000001FF
